:020000040000FA
:100000000A128A110C280800FE00030EF0000A08EC
:10001000F1000A168A15B62D0A128A110F288317C5
:10002000EF30FD001930FE00A430FF00DE30840008
:100030000A168A15F1210A128A114430FD001A307D
:10004000FE000030FF00303084000A168A15F121CE
:100050000A128A1190308400B8300A168A151C21C1
:100060000A128A111030840030300A168A151C21B9
:100070000A128A1183160313EE01EF018312031390
:10008000EE01FA01FB0183010A128A115C28FF00CC
:1000900000308A007F0882074C280A128A15D52A68
:1000A0000A168A11B0280A168A11C42C0A168A1157
:1000B000992E0A128A15622C0A168A154C270A12E2
:1000C0008A110A168A1550260A128A1183160317F6
:1000D000CA01CB01831603174A08AF3E84004A08C1
:1000E0000A168A1514220A128A1183178000013019
:1000F00083160317CA070318CB0A0030CB074B0837
:10010000803AFF0080307F02031D882804304A02B5
:10011000031C8B288C286A2883160317B3010A1640
:100120008A153E220A128A110A168A1529220A12F3
:100130008A110A168A1503260A128A110A168A11CA
:1001400064220A128A11F201CA300A168A158F2215
:100150000A128A11F201F20A831603171D08DE3E05
:100160008400831700080A168A158F220A128A1142
:1001700083160317DC01DD016D086E040319C12825
:10018000C228D128FB30F6008830F700CA30F800CA
:100190000A168A157B240A128A1183160317ED01A9
:1001A000EE0183120313061ED628D728D128D8289B
:1001B0000A168A1198250A128A11C430F6000A1606
:1001C0008A15AF220A128A11C430F9000A168A155C
:1001D000A4270A128A11831603171D08303E9700C0
:1001E00098011E081A06031DF7281D081906031991
:1001F000FA28FB285E2915081604031D0029012989
:100200000A291E089A001D08990001309500003047
:1002100096005E290130EB070318EC0A0030EC076A
:100220006C08803AFF0080307F02031D19290A30D4
:100230006B02031C1C291D2922290A168A15F32486
:100240000A128A11831603171E089A001D089900C6
:10025000D930F2000130F300B430F4000130F50081
:100260000A168A153B230A128A11CE30F200013099
:10027000F300A630F4000130F5000A168A153B237E
:100280000A128A11831603175C085D0403194929B1
:100290004A294D296408D70053291D08DE3E8400F1
:1002A00083170008D700D801CE30F5000130F600E2
:1002B0006B080A168A11D7220A128A1183120313B5
:1002C000061963296429B029061D6729682964294C
:1002D0000D3083160317B900FB30B800B80B6E2938
:1002E000B90B6E29F201CB300A168A158F220A1239
:1002F0008A11F201F20A20300A168A158F220A1298
:100300008A11FF30831603179D0703189E0AFF30DA
:100310009E071D0A031D90291E0A031D902991297D
:1003200093299D019E011D0897009801F201CA3092
:100330000A168A158F220A128A11F201F20A83160E
:1003400003171D08DE3E8400831700080A168A156D
:100350008F220A128A1183160317DC01DD01D828C7
:100360008618B329B429FD29861CB729B829B429D0
:100370000D3083160317B900FB30B800B80BBE2947
:10038000B90BBE29F201CB300A168A158F220A1248
:100390008A11F201F20A20300A168A158F220A12F7
:1003A0008A110130831603179D0703189E0A003037
:1003B0009E0706301D061E04031DDF29E029E429DF
:1003C00005309D0000309E001D0897009801F20145
:1003D000CA300A168A158F220A128A11F201F20A0D
:1003E000831603171D08DE3E8400831700080A16D3
:1003F0008A158F220A128A11AB290618002A012AAF
:100400003F2A061C042A052A012A0D3083160317E9
:10041000B900FB30B800B80B0B2AB90B0B2AF2015C
:10042000CB300A168A158F220A128A11F201F20ABB
:1004300020300A168A158F220A128A113630831646
:10044000031797009801F201CA300A168A158F2205
:100450000A128A11F201F20A8316031764080A16B7
:100460008A158F220A128A11013083160317DC00C5
:100470000030DD000630990000309A00D828861D33
:10048000422A432A472A061A462A472AD828861D7E
:100490004A2A4B2A472A061E4E2A4F2A472A0D303F
:1004A00083160317B900FB30B800B80B552AB90BF7
:1004B000552A0A168A1503260A128A110330F600F5
:1004C0008830F7008430F8000A168A157B240A1257
:1004D0008A1183160317CC01CD010A168A1503264B
:1004E0000A128A110330F6008830F7008430F800D1
:1004F0000A168A157B240A128A11BB308312031351
:10050000A2000130A3000030A400A5000A128A1145
:10051000E5230A128A118312031323088316031793
:10052000C90083120313220883160317C800480367
:100530004904031D9C2A9D2AA82A0A168A15032607
:100540000A128A110A128A152C260A128A118F2879
:1005500048084904031DAD2AAE2A1C2B0A168A1529
:1005600003260A128A11FB30F6008730F70080302C
:10057000F8000A168A157B240A128A1101308316A4
:100580000317CC070318CD0A0030CD074D08803A79
:10059000FF0080307F02031DCF2A03304C02031876
:1005A000D22AD32A4A2BF201C0300A168A158F228A
:1005B0000A128A11F201F20A831603174C08333C1F
:1005C0000A168A158F220A128A110330831603171E
:1005D000B8004C083802B9004D090318013EBA00B2
:1005E00039033A04031DF52AF62A022B7C30F60063
:1005F0008830F700C230F8000A168A157B240A12E8
:100600008A110D2B3A30F6008830F700C230F8001E
:100610000A168A157B240A128A11083083160317DA
:10062000BA009D30B9000530B800B80B152BB90BD6
:10063000152BBA0B152B4A2B023048064904031D13
:10064000222B232B422B0A168A1503260A128A1103
:100650002B30F6008830F7008030F8000A168A1533
:100660007B240A128A11083083160317BA009D30C2
:10067000B9000530B800B80B3B2BB90B3B2BBA0BBC
:100680003B2B8F28033048064904031D482B492B78
:100690004A2B8F280330831603174C064D04031D85
:1006A000522B532B6D2ACC01CD010A168A15032635
:1006B0000A128A110C30F6008830F7008030F800FA
:1006C0000A168A157B240A128A11783083160317BA
:1006D000A1000030A20001309F000030A0000A16E7
:1006E0008A1596210A128A11D92BF201C0300A16F6
:1006F0008A158F220A128A11D930F6008830F70045
:10070000C030F8000A168A157B240A128A11C030FC
:1007100083120313D8000130D900F430DA00883096
:10072000DB0083160317220883120313DD008316F0
:100730000317210883120313DC000A168A153225D9
:100740000A128A11F201C6300A168A158F220A127D
:100750008A11C03083160317C700BC2BF201F20ABE
:100760004708840000080A168A158F220A128A1187
:10077000013083160317C707470884008317000852
:10078000031DC32BC42BAE2BEB30F6008830F700D3
:10079000CA30F8000A168A157B240A128A118230A0
:1007A00083160317B900DD30B800B80BD52BB90B91
:1007B000D52B831603171F082004031DE02BE12B04
:1007C000752B8F280A128A110C28FA01FB01831657
:1007D0000317A301A4010B110A168A1556210A1248
:1007E0008A1183120313B301B4017A087B0403193D
:1007F000FA2BFB2B052CFA01FB018B120230831222
:100800000313A2000030A300302E04308312031320
:1008100033063404031D0D2C0E2C0F2CBE2C861910
:10082000122C132C542C861D162C172C132C033031
:1008300083120313A8000830A7007630A600A60B89
:100840001F2CA70B1F2CA80B1F2C000083120313B7
:1008500033082207A7002308A6000318A60AB31F1F
:10086000322CA603831203132608A800270884004D
:100870008317281C8313303080000130B30703181E
:10088000B40A0030B407F2013308C53E0A168A15CF
:100890008F220A128A11F201F20A2A300A168A15E8
:1008A0008F220A128A11F52B061A572C582CF52B79
:1008B000061E5B2C5C2C582C033083120313A800FB
:1008C0000830A7007630A600A60B642CA70B642C7A
:1008D000A80B642C00008312031333082207A7001F
:1008E0002308A6000318A60AB31F772CA6038312B9
:1008F00003132608A800270884008317281C8313E5
:10090000313080000130B3070318B40A0030B40757
:10091000F2013308C53E0A168A158F220A128A117F
:10092000F201F20A2A300A168A158F220A128A1157
:1009300083120313B101B201B72C0130B1070318C0
:10094000B20A0030B2073208803AFF0087307F02D7
:10095000031DAC2CD0303102031CAF2CB02CB72CB3
:10096000033083120313A2000030A300302E831241
:100970000313061EBC2CBD2C9D2CF52B0430A600A9
:1009800026082207A8002308A7000318A70AA61B09
:10099000A7032708A900280884008317291C8313AC
:1009A0008001023083120313A8004530A700A9304C
:1009B000A600A60BD92CA70BD92CA80BD92C8312D7
:1009C000031324032504031DE62CE72C172E0A1617
:1009D0008A1503260A128A11EA30F6008730F700DA
:1009E0008030F8000A168A157B240A128A118312B5
:1009F0000313B301B4017A087B040319002D012D00
:100A0000022DFB2B04308312031333063404031D21
:100A10000A2D0B2D0C2DC92D86190F2D102D422DB1
:100A2000861D132D142D102D033083120313A800DF
:100A30000830A7007630A600A60B1C2DA70B1C2D96
:100A4000A80B1C2D00008312031333082A3E8400D8
:100A50003030831380000130B3070318B40A00302C
:100A6000B407F2013308C53E0A168A158F220A120E
:100A70008A11F201F20A2A300A168A158F220A1206
:100A80008A11FB2C061A452D462D972D061E492D41
:100A90004A2D462D033083120313A8000830A70007
:100AA0007630A600A60B522DA70B522DA80B522D67
:100AB00000008312031333082A3E8400313083136D
:100AC00080000130B3070318B40A0030B407F20104
:100AD0003308C53E0A168A158F220A128A11F201BE
:100AE000F20A2A300A168A158F220A128A118312F4
:100AF0000313B101B201902D0130B1070318B20AFE
:100B00000030B2073208803AFF0087307F02031DB1
:100B10008B2DD0303102031C8E2D8F2D902DB02CBB
:100B200083120313061E952D962D7C2DFB2C861A01
:100B30009A2D9B2DC82DB101B201C12DA530831274
:100B40000313A600A60BA22DA52D013083120313BB
:100B5000B1070318B20A0030B2073208803AFF002A
:100B600087307F02031DB62DD0303102031CB92D12
:100B7000BA2DC12D053083120313A2000030A3004B
:100B8000302E83120313861EC62DC72D9E2DFB2CDF
:100B9000FB2CAE01023083120313A8004530A700DE
:100BA000A930A600A60BD22DA70BD22DA80BD22DB3
:100BB0002A30F2000030F300831203132208F400FD
:100BC0002308F5000A168A15B7240A128A11730839
:100BD00083120313B0007208AF002F083004031D06
:100BE000F22DF32D0C2EAF30F2000130F30022086D
:100BF000F4002308F5000A168A153B230A128A110D
:100C00000A168A1503260A128A1104308312031366
:100C1000A2000030A300302E2F033004031D112E3C
:100C2000122E172E83120313A201A301302E2208C5
:100C3000F2002308F300AF30F4000130F5000A168B
:100C40008A15B7240A128A1172087304031D292E0B
:100C50002A2E122E013083120313A2000030A300AB
:100C60000800780883120313B0007908B100300837
:100C70003104031D3C2E3D2E412ED230B000883071
:100C8000B100B201B3014A2E0130B2070318B30A12
:100C90000030B30732083007AA003108A900031852
:100CA000A90AB21F542EA903831203132908AB000B
:100CB0002B08FF002A0884000A168A1500200A1251
:100CC0008A11003A031D652E662E442E3308AD00AE
:100CD0003208AC00831603136F0883120313AF00AE
:100CE000831603136E0883120313AE006E18792E59
:100CF0007A2EBD2E902E2030F2000030F3007608C0
:100D0000F4007708F5000A168A116C230A128A117A
:100D1000013083120313B2070318B30A0030B3077C
:100D20003308803AA9002F08803A2902031D9A2E21
:100D30002E083202031C9D2E9E2E7B2EBD2E3108C6
:100D4000FF00300884000A168A1500200A128A1152
:100D5000A900AA012908F2002A08F3007608F40085
:100D60007708F5000A168A116C230A128A110130DD
:100D700083120313B0070318B10AFF308312031361
:100D8000AC070318AD0AFF30AD072C0A031DCC2EAB
:100D90002D0A031DCC2ECD2E9F2E6E1CD02ED12EB3
:100DA000F52EE72E2030F2000030F3007608F40034
:100DB0007708F5000A168A116C230A128A1101308D
:100DC00083120313B2070318B30A0030B3073308C2
:100DD000803AA9002F08803A2902031DF12E2E081F
:100DE0003202031CF42EF52ED22E0800F2008312DC
:100DF00003130C1EFC2EFD2EF72E7208990008001E
:100E00002D342D342D342D342D342D342D342D34DA
:100E10002D342D342D342D342D342D342D342D34CA
:100E20002D342D342D342D342D342D342D342D34BA
:100E30002D342D342D342D342D340D340A3400341A
:100E40004E346F342E3420342034203454346934FA
:100E50006D34653420342034203420342034203460
:100E600020344534763465346E347434203453344D
:100E700070346534653464340D340A3400340D3410
:100E80000A342D342D342D3420345634453448342E
:100E9000493443344C34453420344C344F34473493
:100EA0002034443441345434413420342D342D34EE
:100EB0002D340D340A3400342534323464342E3465
:100EC00020342034253473342034203425347334D2
:100ED00020342034203420342034253473340D342D
:100EE0000A34003420342034203420342034203498
:100EF0002034203420342034203420342034203452
:100F000020342034203400345334453454342034D5
:100F1000543449344D344534203446344134493412
:100F20004C345534523445340034433455345234FF
:100F3000523445344E3454342034503441345334D4
:100F4000533457344F3452344434003445344E34DF
:100F50005434453452342034203420344E34453413
:100F60005734203420344B3445345934003454340D
:100F7000523441344E3453344D344934543449346A
:100F80004E344734203444344134543441340034F2
:100F90005434523441344E3453344634453452344C
:100FA00045344434203454344F34203450344334A2
:100FB0000034233420342034203420345434493451
:100FC0004D344534203420342034453420345334D7
:100FD0005034003452344534203445344E34543483
:100FE0004534523420344E344534573420344B3455
:100FF00045345934003449344E34563441344C3439
:101000004934443420345034413453345334573405
:101010004F3452344434003459344F34553420342E
:10102000413452344534203442344C344F34433408
:101030004B344534443400344334683461346E34C2
:1010400067346534203470346134733473347734E6
:1010500072346434003453344334523445344534A8
:101060004E342034543449344D3445344F3455349F
:101070005434003441345434543445344D345034B1
:101080005434533420344C344534463454340034CE
:10109000543449344D344534203455345034443478
:1010A0004134543445344434003453345534433497
:1010B0004334453453345334463455344C344C342F
:1010C0005934003445344E34443420344F3446349B
:1010D00020344C344F3447340D340A340034443413
:1010E0006F3477346E346C346F346134643420344C
:1010F0006C346F34673400344134543445344D34E7
:101100005034543420344C34453446345434003450
:101110004D344934533420344D3441345434433401
:101120004834003454344F34203454344834453433
:10113000203450344334003443346C3465346134E7
:10114000723420346C346F34673400345334453493
:1011500054342034543449344D34453400344C3400
:101160004F3447342034443441345434413400340F
:101170005334653474342034743469346D346534D4
:101180000034563469346534773420346C346F3429
:101190006734003443344C3445344134523445349C
:1011A0004434003428346E3475346C346C3429344F
:1011B000003457346134693474343A3420340034A0
:1011C00045344D345034543459340034303431348F
:1011D0003034313400347334653463347334003460
:1011E0004C344F34473400342534333464340034C1
:0C11F0003134303400344F344E340034BD
:1011FE00F701F31F032904290B29F209F309F20A57
:10120E000319F30A0130F700F51F0E290F291629CD
:10121E00F409F509F40A0319F50A0130F706F80185
:10122E00F9017208730403191D291E29532901306F
:10123E00F6002A2901300310F20DF30DFF3E031DB7
:10124E0022290130F607F31F2D292E2921290130DD
:10125E000310F80DF90DFF3E031D2F2973087502BB
:10126E00031D3B2972087402031C3E293F2946299F
:10127E007208F4027308031CF503F50278140130AA
:10128E000310F30CF20CFF3E031D47290130F6024A
:10129E00031D522953292E29770803195729582936
:1012AE005D29F809F909F80A0319F90A7908F30012
:1012BE007808F20008008312031343088400831396
:1012CE000008C600840A0008C7004708FF00460849
:1012DE0084000A168A1500200A128A15253A031D63
:1012EE0079297A29B32A43088400013083138007B1
:1012FE00840A0318800A83160313EE01EF010030EF
:10130E0083120313EE00FF30831603179300FF3092
:10131E009400831203134308F8004408F9000A16D8
:10132E008A1186210A128A15790883160313EF0093
:10133E007808EE00EF1FA429A529AF298312031305
:10134E006E1483160313EE09EF09EE0A0319EF0A62
:10135E00831203134308840083130008CF00840A0A
:10136E0000088403D0005008FF004F0884000A16BE
:10137E008A1500200A128A15643A0319C729C8294A
:10138E00D6295008FF004F0884000A168A1500203F
:10139E000A128A15693A031DD529D6290A2A440844
:1013AE0084008317451C83130008FF00023080075A
:1013BE007F08840083130008CA00840A0008CB004B
:1013CE000130C60046084F07C8005008C700031872
:1013DE00C70AC61BC7034708C9004308840048084C
:1013EE0080004908840A800084034108B500420841
:1013FE00B6004B08B8004A08B7000A168A110C242A
:10140E000A128A15D42ACE014308840083130008D9
:10141E00C600840A0008C7004708FF00460884007B
:10142E000A168A1500200A128A15733A031D202AFD
:10143E00212A2C2A43088400013083138007840A52
:10144E000318800A0130CE00872A430884008313D4
:10145E000008C600840A0008C7004708FF004608B7
:10146E0084000A168A1500200A128A156C3A031D8A
:10147E00412A422A872A0130C6000030C70043089D
:10148E00840083130008C800840A0008C9004608B7
:10149E004807840047080318470A4907FF000A1641
:1014AE008A1500200A128A156C3A031D5F2A602ADB
:1014BE00872A0230C6000030C70043088400831319
:1014CE000008C800840A0008C900460848078400BE
:1014DE0047080318470A4907FF000A168A15002015
:1014EE000A128A15733A031D7D2A7E2A872A43081B
:1014FE008400033083138007840A0318800A292A84
:10150E004E0803198B2A8C2AA82A4108F600420895
:10151E00F700440884008317451C83130008FF005E
:10152E00023080077F08840083130008F800840AC5
:10153E0000088403F9000A128A1131260A128A154C
:10154E00D42A8312031343088400013083138007C7
:10155E00840A0318800AD42A4308840083130008DF
:10156E00C600840A0008C7004708FF00460884002A
:10157E000A168A1500200A128A15C800C9014808E1
:10158E00F2004908F3004108F4004208F5000A167B
:10159E008A116C230A128A15A82A080001308316B4
:1015AE000317A50083120313B801B9010A168A1591
:1015BE0003260A128A1583160317EC1FE72AE82A58
:1015CE00122BE030F6008830F7008530F8000A164E
:1015DE008A157B240A128A15F030F6008830F7003F
:1015EE00C630F8000A168A157B240A128A150830AE
:1015FE0083120313A5009D30A4000530A300A30B96
:10160E00062BA40B062BA50B062B0A168A150326F2
:10161E000A128A15612CD930F6008730F700803017
:10162E00F8000A168A157B240A128A1583120313F0
:10163E00A601A7012A30F5000030F60038080A1678
:10164E008A11F3210A128A15831203133908270609
:10165E00031D332B380826060319362B372B422B46
:10166E007330F6008730F700C030F8000A168A157E
:10167E007B240A128A15831203133808013EA30035
:10168E0039080318013E003EA4000A302306240444
:10169E00031D522B532B5F2BF830F6008830F700CA
:1016AE00C030F8000A168A157B240A128A157C2B84
:1016BE008230F6008730F700C130F8000A168A151E
:1016CE007B240A128A15F201C0300A168A158F225F
:1016DE000A128A15F201F20A831203133808313EF8
:1016EE000A168A158F220A128A150D3083120313D9
:1016FE00A400FB30A300A30B822BA40B822B2A3059
:10170E00F6000030F700C330F8000A168A157B2465
:10171E000A128A150D3083120313A400FB30A300A6
:10172E00A30B972BA40B972B3330F6000030F7004A
:10173E00CC30F8000A168A157B240A128A150D3051
:10174E0083120313A400FB30A300A30BAC2BA40B3A
:10175E00AC2B3530F6000030F700CE30F8000A160C
:10176E008A157B240A128A150D3083120313A400E6
:10177E00FB30A300A30BC12BA40BC12B83120313AD
:10178E00061ACA2BCB2B342C0D3083120313A40054
:10179E00FB30A300A30BD12BA40BD12B831203136D
:1017AE00A801A901FA2BA53083120313A300A30BE2
:1017BE00DE2BE12B013083120313A8070318A90AAD
:1017CE000030A9072908803AFF0087307F02031DE9
:1017DE00F22BD0302802031CF52BF62BFA2B831696
:1017EE000317A5010C2B83120313061EFF2B002CCF
:1017FE00DA2B2908803AFF0087307F02031D092C5F
:10180E00D030280203180C2C0D2C5A2C83120313E3
:10181E003808013EA30039080318013E003EA4001B
:10182E00831603176C08803A83120313A50024084D
:10183E00803A2502031D272C2308831603176B02FB
:10184E00031C2A2C2B2C5A2C013083120313B8079D
:10185E000318B90A0030B9075A2C8619372C382CC0
:10186E005A2C0D3083120313A400FB30A300A30BDC
:10187E003E2CA40B3E2C83120313861D472C482CA2
:10188E00422C3808FF3EA30039080318013EFF3EE4
:10189E00A400A41B532C542C5A2CFF30B807031849
:1018AE00B90AFF30B907831203133908A7003808A5
:1018BE00A600212B08000A168A1503260A128A157D
:1018CE00A630F6008830F7008430F8000A168A1524
:1018DE007B240A128A1583120313B001B1018312FD
:1018EE0003133008A63E840083170008FF0030085B
:1018FE00253E84007F08831380000130B007031853
:10190E00B10A0030B1073108803AFF0080307F0203
:10191E00031D932C09303002031C962C972C762C29
:10192E00073083120313B2000030B3002530F600E7
:10193E000030F700C430F8000A168A157B240A120C
:10194E008A1583120313061AAD2CAE2CCE2DAE01C2
:10195E00AF010D3083120313A300FB30A200A20BC4
:10196E00B62CA30BB62C482D0000013083120313A6
:10197E00AE070318AF0A0030AF072F08803AFF00FA
:10198E00CE307F02031DCD2C20302E02031CD02C16
:10199E00D12C482D831203132508A2000430031006
:1019AE00A20DFF3E031DD62C2608D03E2204831620
:1019BE00031790001008F30002300A168A157122E0
:1019CE000A128A15831203132808A200043003108A
:1019DE00A20DFF3E031DEE2C2908D03E22048316D5
:1019EE00031791001108F30001300A168A157122AF
:1019FE000A128A15831203132B08A2000430031057
:101A0E00A20DFF3E031D062D2C08D03E2204831688
:101A1E00031792001208F30000300A168A1571227D
:101A2E000A128A150A168A1503260A128A154830D2
:101A3E00F6008830F7008230F8000A168A157B24EB
:101A4E000A128A155530F6008830F700C230F800B9
:101A5E000A168A157B240A128A150830831203137C
:101A6E00A4009D30A3000530A200A20B3C2DA30BB9
:101A7E003C2DA40B3C2D0A168A1503260A128A1534
:101A8E002B2E83120313061E4D2D4E2DBB2C0D3007
:101A9E0083120313A300FB30A200A20B542DA30B41
:101AAE00542D831203132508D03EA200FF300318D5
:101ABE000030A300023022062304031D672D682D7B
:101ACE007A2D2608D13EA200FF3003180030A30065
:101ADE00043022062304031D752D762D7A2D303009
:101AEE00A600A500CE2D3208253E840083130008E3
:101AFE00D03EA200FF3003180030A30000302302B6
:101B0E00093003192202031C8D2D8E2DC82D32088B
:101B1E00FF3E253E8400013080073208253E8400BA
:101B2E00303080003208253E84000008D03EA200EE
:101B3E00FF3003180030A30022082304031DA82D34
:101B4E00A92DCE2D3208FF3E253E84000008D03E42
:101B5E00A200FF3003180030A30006302206230433
:101B6E00031DBA2DBB2DCE2D3208253E84003030FC
:101B7E008000FF003208FF3E253E84007F08800073
:101B8E00CE2D3208253E840001308007CE2D861AD8
:101B9E00D12DD22D9D2CAE01AF010D30831203132A
:101BAE00A300FB30A200A20BDA2DA30BDA2DFF2D22
:101BBE000130AE070318AF0A0030AF0720302E06F3
:101BCE004E3003192F06031DED2DEE2DFF2D0A1697
:101BDE008A1503260A128A158430F6008730F7001C
:101BEE008030F8000A168A157B240A128A15342DC5
:101BFE0083120313861E042E052EDF2D0D30831245
:101C0E000313A300FB30A200A20B0B2EA30B0B2E73
:101C1E00FD3083120313B2070318B30AFF30B30764
:101C2E003308803AFF0080307F02031D202E0130E2
:101C3E0032020318232E242E9D2C013083120313FF
:101C4E00B2000030B3009D2C080030308400E0302C
:101C5E0083120313EA000A30EB0083170008EC002E
:101C6E00040AED006A08840083136C088000040ADD
:101C7E00EA006D088400EB0B342EDB3084008312F7
:101C8E0003173A088000840A3B088000840A3C0847
:101C9E008000840A3D088000840A3E088000831676
:101CAE000313EC01ED01831603136D08803AFF0058
:101CBE0080307F02031D652E04306C020318682EDF
:101CCE00692E882EF20180300A168A158F220A128A
:101CDE008A15F201F20A2A300A168A158F220A1282
:101CEE008A15F201C0300A168A158F220A128A1539
:101CFE00F201F20A20300A168A158F220A128A156C
:101D0E00A62EF20180300A168A158F220A128A1523
:101D1E00F201F20A20300A168A158F220A128A154B
:101D2E00F201C0300A168A158F220A128A15F201A4
:101D3E00F20A2A300A168A158F220A128A1583167B
:101D4E0003136D08803AFF0080307F02031DB12E11
:101D5E0004306C020318B42EB52EE52E8316031331
:101D6E006C0883120313EA006A07E03E84008313B3
:101D7E000008F600840A00088403F7008230F80099
:101D8E000A168A157B240A128A15831603136C0809
:101D9E0083120313EA006A07023EE03E84008313B7
:101DAE000008F600840A00088403F700C230F80029
:101DBE000A168A157B240A128A15142F831603130A
:101DCE006C0883120313EA006A07FE3EE03E8400AD
:101DDE0083130008F600840A00088403F70082309B
:101DEE00F8000A168A157B240A128A158316031325
:101DFE006C0883120313EA006A07E03E8400831323
:101E0E000008F600840A00088403F700C230F800C8
:101E1E000A168A157B240A128A1583120313861A50
:101E2E00192F1A2F2A2F0D3083120313EB00FB30BC
:101E3E00EA00EA0B202FEB0B202F0A168A15032639
:101E4E000A128A15FF2F061A2D2F2E2F812F831679
:101E5E000313EA01EB01502FA53083120313EA009E
:101E6E00EA0B372F3A2F013083160313EA070318B4
:101E7E00EB0A0030EB076B08803AFF0087307F02D9
:101E8E00031D4B2FD0306A02031C4E2F4F2F502FA5
:101E9E00FF2F83120313061E552F562F332F831633
:101EAE0003136B08803AFF0087307F02031D612FFA
:101EBE00D0306A020318642F652F812F8316031307
:101ECE006D08803AFF0080307F02031D702F0430B2
:101EDE006C020318732F742F812F0A168A1503268E
:101EEE000A128A15013083160313EC070318ED0A44
:101EFE000030ED07831203138619862F872F5A2E73
:101F0E000D3083120313EB00FB30EA00EA0B8D2F2A
:101F1E00EB0B8D2F83160313EA01EB01CD2FA530AA
:101F2E0083120313EA00EA0B9A2F9D2F01308316BA
:101F3E000313EA070318EB0A0030EB076B08803A2D
:101F4E00FF0087307F02031DAE2FD0306A02031CC4
:101F5E00B12FB22FCD2F831603136C08DB3E8400F6
:101F6E00831300080A128A1147200A128A150A16CC
:101F7E008A1503260A128A15823083120313EB0088
:101F8E00DD30EA00EA0BC92FEB0BC92F83120313C6
:101F9E00861DD22FD32F962F831603136D08803AEA
:101FAE00FF0080307F02031DDE2F01306C02031C08
:101FBE00E12FE22F5A2E831603136B08803AFF008F
:101FCE0087307F02031DED2FD0306A020318F02FE9
:101FDE00F12F5A2E0A168A1503260A128A15FF3079
:101FEE0083160313EC070318ED0AFF30ED075A2E84
:021FFE000800D9
:102004000030F8000030F7000030F6000030F50032
:1020140083120313201C0F28102827282408F507EF
:10202400250803110318013E03191928F607260889
:1020340003110318013E03192028F7072708031189
:102044000318013E03192728F8070130F400031090
:10205400A40DA50DA60DA70DF40B2928013003101E
:10206400A30CA20CA10CA00CFF3E031D31282308D5
:10207400220421042004031D402841280A2878084A
:10208400A3007708A2007608A1007508A000080044
:10209400003083120313B3000030B2000030B100EB
:1020A4000030B0002B082A042904280403195B28F3
:1020B4005C28A7280130B4006A280130F900031015
:1020C400A80DA90DAA0DAB0DF90B61280130B407B9
:1020D400AB1F6D286E285F280130F9000310B00D86
:1020E400B10DB20DB30DF90B70282B082F02031D8F
:1020F40085282A082E02031D852829082D02031D80
:10210400852828082C02031C882889289828280850
:10211400AC022908031C290FAD022A08031C2A0F4C
:10212400AE022B08031C2B0FAF0230140130031036
:10213400AB0CAA0CA90CA80CFF3E031D9928013076
:10214400B402031DA628A7286E283308AB00320862
:10215400AA003108A9003008A80008008316031754
:102164006B0A031DB9286C0A031DB928BA28E42890
:102174000A168A1503260A168A11E030F6008830FA
:10218400F7008530F8000A168A157B240A168A118E
:10219400F030F6008830F700C630F8000A168A15C9
:1021A4007B240A168A11083083120313A4009D307D
:1021B400A3000530A200A20BDD28A30BDD28A40B8D
:1021C400DD2819290A168A1503260A168A11F03001
:1021D400F6008830F7008630F8000A168A157B244A
:1021E4000A168A11CA30F6008830F700C430F800A5
:1021F4000A168A157B240A168A11083083120313DF
:10220400A4009D30A3000530A200A20B0729A30B54
:102214000729A40B0729FF3083160317EB00FF30AF
:10222400EC006B080A168A1536210A168A11080072
:102234008312031324088400203083178000240AA7
:102244008400203080002408023E84002030800076
:102254002408033E84008001003026026430031900
:102264002502031C362937293B296330A500003099
:10227400A600240884000A30A0000030A1000A301F
:10228400F2000030F3002608F5002508F4000A16D1
:102294008A1574250A168A11730883120313A3007E
:1022A4007208A2000A168A1541240A168A1183129A
:1022B40003132008303E83178000240A84000A3068
:1022C400A0000030A1002608A3002508A2000A16D9
:1022D4008A1541240A168A11831203132008303EFA
:1022E400831780002408023E840080010030260207
:1022F4000A30031925020318802981298529240815
:10230400840020308000080083120313A301A40179
:102314007808840083130008A000840A0008A10040
:102324002108FF00200884000A168A1500200A16D6
:102334008A112A3A031D9F29A029D52978088400E7
:10234400013083138007840A0318800A7908840003
:102354000008FF00023080077F0884000008A30003
:10236400840A0008A400EE292408F3002308F200DC
:102374000A30F4000030F5000A168A15F0220A1615
:102384008A118312031322087207A3000030031872
:1023940001307307A4007808840001308313800798
:1023A400840A0318800A7808840083130008A000B4
:1023B400840A0008A1002108FF00200884000A16EE
:1023C4008A1500200A168A11D03EA2000A30220281
:1023D400031CED29EE29B6292408F9002308F80086
:1023E400080083120313A0000E30F20020080A161E
:1023F4008A15C7210A168A1183120313A100A201A8
:1024040022087507F70076080318013EF8007708DC
:1024140084008317781C831321080A168A156E21F9
:102424000A168A118000013083120313A1070130B8
:10243400A20709302202031C202A212A022AA2010F
:102444002208093E7507F70076080318013EF800D4
:10245400770884008317781C831321080A168A15C9
:102464006E210A168A118000013083120313A1071A
:102474000130A20702302202031C412A422A222AE6
:10248400A20122080B3E7507F70076080318013EE7
:10249400F800770884008317781C831321080A1630
:1024A4008A156E210A168A118000013083120313E3
:1024B400A1070130A20703302202031C622A632A07
:1024C400432A0800F601F701812AF2017608823EC8
:1024D4000A168A158F220A168A11F201F20A760860
:1024E4003F3E8400831700080A168A158F220A16B5
:1024F4008A110130F6070318F70A0030F707760847
:102504003F3E840083170008031D892A8A2A672A0C
:10251400F601F701A72AF20176088A3E0A168A15FF
:102524008F220A168A11F201F20A7608E93E840023
:10253400831700080A168A158F220A168A11013099
:10254400F6070318F70A0030F7077608E93E840017
:1025540083170008031DAF2AB02A8D2AF601F7015C
:10256400CD2AF20176088E3E0A168A158F220A16A3
:102574008A11F201F20A7608E63E84008317000805
:102584000A168A158F220A168A110130F6070318D3
:10259400F70A0030F7077608E63E84008317000840
:1025A400031DD52AD62AB32A080083120313A000D8
:1025B4000E30F20020080A168A15C7210A168A115D
:1025C40083120313A100A20122087507F7007608FD
:1025D4000318013EF800770884008317781C8313DE
:1025E4000008F20021080A168A1557220A168A11D1
:1025F400013083120313A1070430F8003D30F700C3
:10260400F70B022BF80B022B072B01308312031359
:10261400A20709302202031C102B112BE62AA20167
:102624002208093E7507F70076080318013EF800F2
:10263400770884008317781C83130008F2002108AC
:102644000A168A1557220A168A11013083120313B7
:10265400A1070430F8003D30F700F70B2F2BF80BDF
:102664002F2B342B013083120313A20702302202D2
:10267400031C3D2B3E2B122BA20122080B3E750797
:10268400F70076080318013EF800770884008317E2
:10269400781C83130008F20021080A168A155722B1
:1026A4000A168A11013083120313A1070430F800BB
:1026B4003D30F700F70B5C2BF80B5C2B612B0130E2
:1026C40083120313A20703302202031C6A2B6B2B11
:1026D4003F2B0800740875040319712B722B782B97
:1026E40074087504031D772B782B7F2B72080A124C
:1026F4008A1103200A168A110B2C7408093E8312CE
:102704000313A00075080318013E003EA100200831
:1027140084008317211C83130008A200840A000884
:10272400A300220823040319982B992BCB2B74089C
:10273400093EA00075080318013E003EA1002008D0
:1027440084008317211C83130008A200840A000854
:10275400A3007408023EA40075080318013E003E5D
:10276400A500240884008317251C83130008A600F1
:10277400840A0008A7002708803AA8002308803AA2
:102784002802031DC72B220826020318CA2BCB2BB1
:102794000B2C740884008317751C831300088312A0
:1027A4000313A000840A0008A1007408023EA200DA
:1027B40075080318013E003EA30022088400831715
:1027C400231C831300082007A5002108A400031874
:1027D400A40A801FEE2BA403831203132408A6006B
:1027E400250884008317261C83137208800074084C
:1027F400023EA00075080318013E003EA100200817
:1028040084008317211C831301308007840A031872
:10281400800A0800013083120313BB00B81B132C79
:10282400152C0130162C0030BE00831603136F08DC
:1028340083120313BD00831603136E08831203135C
:10284400BC003E080319272C282C3E2CFF30BC0763
:102854000318BD0AFF30BD073E08031D322C332C7C
:10286400382C2B30B9000030BA003C2C2D30B90084
:102874000030BA003908BE001F30BF000030C0006D
:1028840083120317AF01852CFF30BF070318C00A5A
:10289400FF30C0073F08103E84000A30F2000030C9
:1028A400F3003808F5003708F4000A168A15F526EF
:1028B4000A168A117308F9007208F8000A168A15B4
:1028C400DA210A168A117808303E831780008312B1
:1028D4000313BB01FF30BC070318BD0AFF30BD075B
:1028E4000A30F2000030F3003808F5003708F4002D
:1028F4000A128A15FF200A168A1173088312031319
:10290400B8007208B70003134008803AFF00803013
:102914007F02031D8F2C01303F02031C922C932C49
:10292400A02C8312031337083804031D9A2C9B2C04
:10293400462C3B08031D9F2CA02C462C831203130A
:102944003E080319A62CA72CB32CFF30BF0703188D
:10295400C00AFF30C0073F08103E84003E088317BA
:1029640080003508AE003608AF003F08103EB000C6
:102974003D08B2003C08B1000A168A15A2260A16C0
:102984008A1108000A168A1503260A168A110A16DD
:102994008A157B210A168A11B730F6008730F700B2
:1029A4008030F8000A168A157B240A168A119230A0
:1029B400F6008830F700C430F8000A168A157B2424
:1029C4000A168A113F30F3008730F4000A168A157C
:1029D40015230A168A112030F3008730F4000A16F2
:1029E4008A1515230A168A110030F3008730F40083
:1029F4000A168A1515230A168A1183160313CC01A5
:102A0400422DCD30F5000030F600831603134C0838
:102A14000A168A11F3210A168A11AC3083120313A1
:102A2400D8000030D9005C30DA008730DB00831630
:102A340003134C08013E83120313DC000030031817
:102A44000130DD00CD30DE000030DF00D630E000A4
:102A54000030E100D830E2000030E3000A168A15A5
:102A640032250A168A11AC30F3000030F4000A163D
:102A74008A1515230A168A11013083160313CC070D
:102A8400831603176C08803A83120313E70080301F
:102A94006702031D532D831603134C088316031773
:102AA4006B020318562D572D032D0030F300873089
:102AB400F4000A168A1515230A168A116230F300E7
:102AC4008830F4000A168A1515230A168A110A1684
:102AD4008A1503260A168A11AF30F6008830F700EB
:102AE4008330F8000A168A157B240A168A11C83026
:102AF400F6008730F700C030F8000A168A157B24E8
:102B04000A168A11083083120313E9009D30E80085
:102B14000530E700E70B8C2DE80B8C2DE90B8C2D91
:102B24000A168A1503260A168A1108000030831231
:102B34000313AB000030AA000330A900FF30A80043
:102B44000A168A1588210A168A1172088312031339
:102B5400B5007308B600B701B8013808A3003708F8
:102B6400A2003608A1003508A0000030A7000030FC
:102B7400A6000030A5006330A4000A168A110220C2
:102B84000A168A11831203132308AF002208AE0029
:102B94002108AD002008AC000A168A114A200A1642
:102BA4008A11831203132908BC002808BB00B4301F
:102BB400A4003C08A6003B08A5000A168A111A21A5
:102BC4000A168A1183120313B901BA01072EF201FE
:102BD4003908CE3E0A168A158F220A168A11F20186
:102BE400F20A831203133908B43E840083170008E1
:102BF4000A168A158F220A168A11013083120313CA
:102C0400B9070318BA0A0030BA073908B43E840079
:102C140083170008031D0F2E102EE92D83160317AA
:102C24001C08831203133C06031D1E2E8316031770
:102C34001B08831203133B060319212E222E982E00
:102C44008316031715081604031D292E2A2E3B2E5E
:102C5400831203133C08831603179C008312031387
:102C64003B08831603179B00013095000030960043
:102C7400982E0130EB070318EC0A0030EC076B08C0
:102C84000A168A1536210A168A11831603176C0848
:102C9400803AFF0080307F02031D522E0A306B02FF
:102CA400031C552E562E5B2E0A168A15F3240A167B
:102CB4008A11831203133C08831603179C008312A2
:102CC40003133B08831603179B004830F2000030BF
:102CD400F300B430F4000130F5000A168A153B23E2
:102CE4000A168A113D30F2000030F300A630F400D9
:102CF4000130F5000A168A153B230A168A11831639
:102D040003171D08DE3E8400831700088312031393
:102D1400C600C7013D30F5000030F60083160317E6
:102D24006B080A168A11D7220A168A1108009530F0
:102D3400F6008730F7008030F8000A168A157B24E5
:102D44000A168A1183120313861DA92EAA2EA42EF5
:102D5400061EAD2EAE2EA42E0D3083120313B60024
:102D6400FB30B500B50BB42EB60BB42E0A168A157B
:102D740003260A168A119530F6008730F700803052
:102D8400F8000A168A157B240A168A113830831231
:102D94000313A2000030A3000030A400A5000A120F
:102DA4008A11E5230A168A11831203132308C20029
:102DB4002208C10041034204031DE12EE22EC52F67
:102DC400A630F6008730F7008030F8000A168A151E
:102DD4007B240A168A117230F6008730F700C0305F
:102DE400F8000A168A157B240A168A118312031323
:102DF400861DFD2EFE2EF82E061E012F022FF82E04
:102E04000D3083120313B600FB30B500B50B082F49
:102E1400B60B082FA630F6008730F7008030F80094
:102E24000A168A157B240A168A1138308312031372
:102E3400A2000030A3000130A4000030A5000A1253
:102E44008A11E5230A168A11831203132308BE008C
:102E54002208BD0004303D063E04031D322F332FEB
:102E6400822FBF01C001831203133F08AF3E8400C9
:102E740083170008F2003F080A168A15B7230A16BA
:102E84008A11013083120313BF070318C00A0030EC
:102E9400C0074008803AFF0080307F02031D542F92
:102EA40004303F02031C572F582F352F0330F600F0
:102EB4008830F7008430F8000A168A157B240A1635
:102EC4008A114D30F6008830F700C430F8000A1635
:102ED4008A157B240A168A11083083120313B7005B
:102EE4009D30B6000530B500B50B762FB60B762FA6
:102EF400B70B762F0A168A1503260A168A11FF2F96
:102F040002303D063E04031D882F892F9A2F0A168E
:102F14008A1503260A168A112B30F6008830F7002A
:102F24008030F8000A168A157B240A168A116E2F3F
:102F340003303D063E04031DA02FA12FA22F7C2F9A
:102F44003D083E04031DA72FA82FC42F0A168A1577
:102F540003260A168A110330F6008830F700803001
:102F6400F8000A168A157B240A168A118830F6009E
:102F74008830F700C030F8000A168A157B240A1638
:102F84008A116E2FFF2F023041064204031DCB2FFE
:102F9400CC2FDD2F0A168A1503260A168A112B3028
:102FA400F6008830F7008030F8000A168A157B2472
:102FB4000A168A116E2F41084204031DE22FE32FE3
:102FC400EF2FFB30F6008730F7008030F8000A1648
:102FD4008A157B240A168A116E2F03304106420497
:102FE400031DF52FF62FF72F7C2F053041064204E1
:102FF400031DFD2FFE2FC42F7C2F0800FF1B0A2862
:1030040083137F1883170008840A0319FF0A080032
:103014007F087F398A000408840A0319FF0A8200A2
:1032380064008001840A04060319003404061D2969
:103248000A168A1561210A168A15831603131114A2
:1032580008000A168A1561210A168A1583160313AF
:1032680011150800F4007408F20000300A168A15D7
:10327800B7230A168A1508000A168A152D210A1678
:103288008A150A168A1524210A168A150800F200DA
:103298000A168A1561210A168A1572088312031301
:1032A8009300080007308316031381008312031369
:1032B80081010B118B168B17080083160313141941
:1032C80066296729612911081F39031D6C296D2991
:1032D80061290800F2007208831203178D00831613
:1032E80003178C130C14831203170C080800831699
:1032F800031318121815193099009816831203131E
:10330800181698170C160800831203131F151F1997
:103318008E298F298B291E08F300831603131E0894
:10332800F200080031308312031390000B308F0035
:10333800DC308E00831603130C140B178B17080050
:103348004E34523431343234333434344334003428
:1033580053345034003445340034FF34FF340134DE
:10336800003400300A168A158C230A168A15F600CE
:103378007F30F6057608F30000300A168A157122A8
:103388000A168A150800F400F301741CCC29CD290B
:10339800CF297208F3070310F20D0310F40C740818
:1033A800031DD729D829C92973080800F91BDD2965
:1033B800DE29DF29EC29780983120313A000790993
:1033C800A100A00A0319A10A2008F8002108F900A1
:1033D80008007E088A007F0882000A168A15ED21F7
:1033E8000A168A158000840A04087D060319003429
:1033F800FF0A0319FE0AF129C13488349C34883441
:103408006F3488341C348834B83488340134043434
:1034180007340A340D34543449344D3445340034B7
:10342800F2006400831603178C181B2A1C2A152A1D
:103438007208831203178D003F30831603178C051B
:103448000C14831203170C080800003083120313AE
:10345800B8000130B7008630B600A030B5000A16B3
:103468008A150D240A168A150A168A15B5210A1610
:103478008A1508004130831203139F000E3083160B
:1034880003139F009F17831203139F121F129F118C
:10349800831603139F151F159F141F1005148312FD
:1034A80003131F140800F300831603178C185D2AF2
:1034B8005E2A582A7308831203178D0072088C003D
:1034C800831603178C130C158B1355308D00AA30F7
:1034D8008D008C148B170C110800F4000A168A153D
:1034E80024210A168A15D0300A168A154B210A1685
:1034F8008A1574080A168A154B210A168A15730844
:103508000A168A154B210A168A150A168A152D21BC
:103518000A168A150800F5007218932A972A83124A
:10352800031309159A2A83120313091175088800D1
:1035380089141030F300F30B9F2A00008312031341
:1035480089100330F400A830F300F30BA92AF40B18
:10355800A92A000008007608840002300A168A1595
:103568008C230A168A1583178000760A8400013096
:103578000A168A158C230A168A158317800076087E
:10358800023E840000300A168A158C230A168A1512
:10359800831780000800F2000A168A1561210A16AE
:1035A8008A158316031391150A168A1561210A16BE
:1035B8008A15831203131308F3007203031DE52A07
:1035C800E62AEA2A831603139116ED2A83160313B3
:1035D8009112111673080800F601F701721CF52AFA
:1035E800F62AFC2A7408F6070318F70A7508F7077D
:1035F80001300310F40DF50DFF3E031DFD2A0130C7
:103608000310F30CF20CFF3E031D042B7208730425
:10361800031D0F2B102BF22A7708F3007608F2000F
:1036280008002A2B7408FF00730884000A168A15FC
:1036380000200A168A150A128A11F6260A168A1511
:103648000130F3070318F40A0030F40774088312F2
:103658000313FF00730884000A168A1500200A164F
:103668008A15003A031D392B3A2B162B08007208CD
:1036780083120313A0007308A1007508F7007408EB
:10368800F600F40A0319F50A760884008317771CF4
:1036980083130008FF002108F9002008F800A00A99
:1036A8000319A10A780884008317791C83137F08FB
:1036B80080000008031D612B622B412B0800831238
:1036C80003135308D6005408D700792B5108C100BA
:1036D8005208C2005630C3005508C4000030C50067
:1036E8000A128A1562210A168A15831203135708CB
:1036F800FF00560884000A168A1500200A168A1543
:10370800003A031D882B892B6A2BD101D2010800AE
:10371800F4000A168A1524210A168A15D0300A16CA
:103728008A154B210A168A1574080A168A154B2120
:103738000A168A150A168A1540210A168A15D130E2
:103748000A168A154B210A168A1500300A168A1598
:10375800CF220A168A15F5000A168A152D210A168F
:103768008A1575080800F300831603178C18BD2BFB
:10377800BE2BB82B7308831203178D0072088C00B8
:103788003F30831603178C058312031303108B1F16
:10379800CE2BCF2BD02B03148B13831603170C15AA
:1037A80055308D00AA308D008C140C118312031330
:1037B800031CDF2BE02BE12B8B170800831203136C
:1037C800AC01AD01FF2B2B08A900AA012908F200C2
:1037D8002A08F3007708F4007808F5000A168A1119
:1037E8006C230A168A15013083120313AC070318D9
:1037F800AD0A0030AD072C087607A9002908840017
:1038080083170008AB002B08031D0B2C0C2CE72B8F
:1038180008008312031394153508B9003608BA0056
:103828003708BB003808BC0002300310B90DBA0DC8
:10383800BB0DBC0DFF3E031D192C3C08AB003B081B
:10384800AA003A08A9003908A8000030AF001E30C5
:10385800AE008430AD008030AC000A168A114A20D0
:103868000A168A15831203132808FF3E83160313CA
:10387800930083120313941608008312031320087D
:1038880021040319482C492C762C0130F900552CB9
:1038980001300310A00DA10DFF3E031D4D2C01307A
:1038A800F907A11F582C592C4C2C21082302031D61
:1038B8005F2C20082202031C622C632C692C200830
:1038C800A2022108031CA303A30201300310A10CC8
:1038D800A00CFF3E031D6A2C0130F902031D752C54
:1038E800762C592C2308A1002208A0000800831276
:1038F8000313A001A101A82CF201200878070A16D9
:103908008A158F220A168A15F201F20A770883129D
:103918000313FF00760884000A168A1500200A1689
:103928008A150A168A158F220A168A150130F60793
:103938000318F70A0030F707013083120313A007B2
:103948000318A10A0030A1077708FF007608840051
:103958000A168A1500200A168A15003A031DB52C86
:10396800B62C802C0800C22C0130F2070318F30A89
:103978000130F4070318F50A0030F50774088400CD
:103988008317751C83130008F600720884008317D8
:10399800731C831300087606031DD32CD42CDE2C4D
:1039A800720884008317731C83130008031DDD2C21
:1039B800DE2CB82C740884008317751C8313000848
:1039C800F600720884008317731C83130008F7003D
:1039D80076087702F200F301031CF3030800831250
:1039E8000313B101B2012330F5000030F600831251
:1039F80003133108013E0A168A11F3210A168A15A3
:103A08002330F5000030F6008312031331080A163C
:103A18008A11D7220A168A15013083120313B107B7
:103A28000318B20A0030B2073208803AFF0080302B
:103A38007F02031D212D09303102031C242D252D61
:103A4800F72C093083160317EB000030EC006B08E5
:103A58000A168A1536210A168A1508005C3083165C
:103A68000313A00083120313580883160313A1003D
:103A780083120313590883160313A200A301A40198
:103A8800AA01AB01A13083120313D1000030D20088
:103A98005A08D3005B08D400A030D5000A168A154E
:103AA80063230A168A158316031323088312031344
:103AB8005807E5005908E4000318E40A83160313BD
:103AC800A31F692D83120313E403831203136408ED
:103AD800E600650884008317661C831380010800CC
:103AE800F601F7017208730403197B2D7C2DB12DA3
:103AF8000130F800882D01300310F20DF30DFF3E60
:103B0800031D802D0130F807F31F8B2D8C2D7F2D81
:103B180001300310F60DF70DFF3E031D8D2D7308C0
:103B28007502031D992D72087402031C9C2D9D2D8E
:103B3800A42D7208F4027308031CF503F502761429
:103B480001300310F30CF20CFF3E031DA52D0130CC
:103B5800F802031DB02DB12D8C2D7708F3007608DF
:103B6800F20008000B1DB92DBA2DD42D0B118312AC
:103B780003138101013083160317A3070318A40A4E
:103B88000030A407013024022A3003192302031C41
:103B9800CE2DCF2DD42D0130FA000030FB008B1232
:103BA800831203130C1CD92DDA2DFC2D0C100B30AD
:103BB8008F00DC308E00831603171F0820040319BA
:103BC800E62DE72DFC2D210822040319EC2DED2DFF
:103BD800F42D0130A1020030031CA203A202FC2D27
:103BE8009F01A001831203131010831603130C10F6
:103BF80071088A00700E8300FE0E7E0E0900F60121
:103C0800F7011C2EF2017608803E0A168A158F22CB
:103C18000A168A15F201F20A20300A168A158F222E
:103C28000A168A150130F6070318F70A0030F70755
:103C38007708803AFF0080307F02031D252E103060
:103C48007602031C282E292E062EF601F701422E95
:103C5800F2017608C03E0A168A158F220A168A15BE
:103C6800F201F20A20300A168A158F220A168A15DE
:103C78000130F6070318F70A0030F7077708803A8B
:103C8800FF0080307F02031D4B2E10307602031C8C
:103C98004E2E4F2E2C2E080000300A168A1514229C
:103CA8000A168A1583120313A200220A031D5D2E29
:103CB8005E2EA12EE630A0008830A100A301A40149
:103CC8008312031323082007F5002108F4000318C2
:103CD800F40AA31F702EF4037408F6007608831202
:103CE8000313FF00750884000A168A1500200A16B7
:103CF8008A15F20023080A168A15B7230A168A15A8
:103D08000730F5007D30F400F40B882EF50B882E73
:103D1800013083120313A3070318A40A0030A40771
:103D28002408803AFF0080307F02031D9D2E043056
:103D38002302031CA02EA12E642E08008312031355
:103D48006E1CA72EA82EB32E3008F6002E08F700FA
:103D58002F08F8000A168A15E2230A168A15831214
:103D68000313B21FB82EB92EBB2EB101B201B30195
:103D7800B401D52E2030F2000030F3008312031373
:103D88002E08F4002F08F5000A168A116C230A166B
:103D98008A15013083120313B3070318B40A0030DD
:103DA800B4073408803AF9003208803A7902031DD2
:103DB800DF2E31083302031CE22EE32EBE2E8312BF
:103DC80003136E18E82EE92EF42E3008F6002E089C
:103DD800F7002F08F8000A168A15E2230A168A1532
:103DE8000800F701F51FF92EFA2E012FF409F5093D
:103DF800F40A0319F50A0130F700F31F042F052F01
:103E08000A2FF209F309F20A0319F30A7208730474
:103E180003190F2F102F3D2F0130F6001C2F0130F2
:103E28000310F20DF30DFF3E031D142F0130F607AA
:103E3800F31F1F2F202F132F73087502031D262F22
:103E480072087402031C292F2A2F302F7208F402DB
:103E58007308031CF503F50201300310F30CF20C90
:103E6800FF3E031D312F0130F602031D3C2F3D2F6D
:103E7800202F77080319412F422F472FF409F509FE
:103E8800F40A0319F50A7508F3007408F20008002B
:103E980083160313880189010230831203138900F2
:103EA8001A30F700F830F600F60B582FF70B582F9A
:103EB8000000F20133300A168A158F220A168A1575
:103EC8000330F700A830F600F60B682FF70B682FC1
:103ED8000000F20133300A168A158F220A168A1555
:103EE8001030F600F60B762F0000F20133300A1678
:103EF8008A158F220A168A15F20138300A168A1591
:103F08008F220A168A151030F600F60B892F00004A
:103F1800F20101300A168A158F220A168A155330C3
:103F2800F600F60B952FF2010C300A168A158F222F
:103F38000A168A151030F600F60BA02F00000800AC
:103F4800790884008317000883120313A200043041
:103F58000310A20CFF3E031DAC2F22080339303E8C
:103F680083160317A6007908840000080F39303E2D
:103F7800A7003A30A800790A8400000883120313C6
:103F8800A20004300310A20CFF3E031DC62F220816
:103F98000739303E83160317A900790A8400000800
:103FA8000F39303EAA003A30AB007908023E84004F
:103FB800000883120313A20004300310A20CFF3E72
:103FC800031DE12F22080739303E83160317AC0082
:103FD8007908023E840000080F39303EAD00AE017A
:103FE800A630F6000130F700C030F8000A168A152E
:083FF8007B240A168A1508005B
:02400E00FB3F76
:00000001FF
